{
  "contractName": "CrowdFund",
  "abi": [
    {
      "constant": true,
      "inputs": [],
      "name": "rate",
      "outputs": [
        {
          "name": "",
          "type": "uint256"
        }
      ],
      "payable": false,
      "stateMutability": "view",
      "type": "function"
    },
    {
      "constant": true,
      "inputs": [],
      "name": "endTime",
      "outputs": [
        {
          "name": "",
          "type": "uint256"
        }
      ],
      "payable": false,
      "stateMutability": "view",
      "type": "function"
    },
    {
      "constant": true,
      "inputs": [],
      "name": "cap",
      "outputs": [
        {
          "name": "",
          "type": "uint256"
        }
      ],
      "payable": false,
      "stateMutability": "view",
      "type": "function"
    },
    {
      "constant": true,
      "inputs": [],
      "name": "tokensSold",
      "outputs": [
        {
          "name": "",
          "type": "uint256"
        }
      ],
      "payable": false,
      "stateMutability": "view",
      "type": "function"
    },
    {
      "constant": true,
      "inputs": [],
      "name": "wallet",
      "outputs": [
        {
          "name": "",
          "type": "address"
        }
      ],
      "payable": false,
      "stateMutability": "view",
      "type": "function"
    },
    {
      "constant": true,
      "inputs": [],
      "name": "fundsRaised",
      "outputs": [
        {
          "name": "",
          "type": "uint256"
        }
      ],
      "payable": false,
      "stateMutability": "view",
      "type": "function"
    },
    {
      "constant": true,
      "inputs": [
        {
          "name": "",
          "type": "address"
        }
      ],
      "name": "investors",
      "outputs": [
        {
          "name": "",
          "type": "uint256"
        }
      ],
      "payable": false,
      "stateMutability": "view",
      "type": "function"
    },
    {
      "constant": false,
      "inputs": [],
      "name": "renounceOwnership",
      "outputs": [],
      "payable": false,
      "stateMutability": "nonpayable",
      "type": "function"
    },
    {
      "constant": true,
      "inputs": [],
      "name": "startTime",
      "outputs": [
        {
          "name": "",
          "type": "uint256"
        }
      ],
      "payable": false,
      "stateMutability": "view",
      "type": "function"
    },
    {
      "constant": true,
      "inputs": [],
      "name": "owner",
      "outputs": [
        {
          "name": "",
          "type": "address"
        }
      ],
      "payable": false,
      "stateMutability": "view",
      "type": "function"
    },
    {
      "constant": true,
      "inputs": [],
      "name": "investorCount",
      "outputs": [
        {
          "name": "",
          "type": "uint256"
        }
      ],
      "payable": false,
      "stateMutability": "view",
      "type": "function"
    },
    {
      "constant": false,
      "inputs": [
        {
          "name": "_newOwner",
          "type": "address"
        }
      ],
      "name": "transferOwnership",
      "outputs": [],
      "payable": false,
      "stateMutability": "nonpayable",
      "type": "function"
    },
    {
      "constant": true,
      "inputs": [],
      "name": "token",
      "outputs": [
        {
          "name": "",
          "type": "address"
        }
      ],
      "payable": false,
      "stateMutability": "view",
      "type": "function"
    },
    {
      "inputs": [
        {
          "name": "_startTime",
          "type": "uint256"
        },
        {
          "name": "_endTime",
          "type": "uint256"
        },
        {
          "name": "_cap",
          "type": "uint256"
        },
        {
          "name": "_rate",
          "type": "uint256"
        },
        {
          "name": "_tokenAddress",
          "type": "address"
        },
        {
          "name": "_owner",
          "type": "address"
        }
      ],
      "payable": false,
      "stateMutability": "nonpayable",
      "type": "constructor"
    },
    {
      "payable": true,
      "stateMutability": "payable",
      "type": "fallback"
    },
    {
      "anonymous": false,
      "inputs": [
        {
          "indexed": true,
          "name": "purchaser",
          "type": "address"
        },
        {
          "indexed": true,
          "name": "beneficiary",
          "type": "address"
        },
        {
          "indexed": false,
          "name": "value",
          "type": "uint256"
        },
        {
          "indexed": false,
          "name": "amount",
          "type": "uint256"
        }
      ],
      "name": "TokenPurchase",
      "type": "event"
    },
    {
      "anonymous": false,
      "inputs": [
        {
          "indexed": false,
          "name": "_daoAddress",
          "type": "address"
        },
        {
          "indexed": false,
          "name": "_timestamp",
          "type": "uint256"
        },
        {
          "indexed": false,
          "name": "_crowdfund",
          "type": "address"
        }
      ],
      "name": "LogNewDAOCreated",
      "type": "event"
    },
    {
      "anonymous": false,
      "inputs": [
        {
          "indexed": true,
          "name": "previousOwner",
          "type": "address"
        }
      ],
      "name": "OwnershipRenounced",
      "type": "event"
    },
    {
      "anonymous": false,
      "inputs": [
        {
          "indexed": true,
          "name": "previousOwner",
          "type": "address"
        },
        {
          "indexed": true,
          "name": "newOwner",
          "type": "address"
        }
      ],
      "name": "OwnershipTransferred",
      "type": "event"
    },
    {
      "constant": false,
      "inputs": [
        {
          "name": "_beneficiary",
          "type": "address"
        }
      ],
      "name": "buyTokens",
      "outputs": [],
      "payable": true,
      "stateMutability": "payable",
      "type": "function"
    },
    {
      "constant": true,
      "inputs": [],
      "name": "capReached",
      "outputs": [
        {
          "name": "",
          "type": "bool"
        }
      ],
      "payable": false,
      "stateMutability": "view",
      "type": "function"
    },
    {
      "constant": true,
      "inputs": [],
      "name": "getNumberInvestors",
      "outputs": [
        {
          "name": "",
          "type": "uint256"
        }
      ],
      "payable": false,
      "stateMutability": "view",
      "type": "function"
    },
    {
      "constant": true,
      "inputs": [],
      "name": "getCrowdFundDetails",
      "outputs": [
        {
          "name": "",
          "type": "uint256"
        },
        {
          "name": "",
          "type": "uint256"
        },
        {
          "name": "",
          "type": "uint256"
        },
        {
          "name": "",
          "type": "uint256"
        },
        {
          "name": "",
          "type": "uint256"
        },
        {
          "name": "",
          "type": "uint256"
        },
        {
          "name": "",
          "type": "uint256"
        }
      ],
      "payable": false,
      "stateMutability": "view",
      "type": "function"
    },
    {
      "constant": false,
      "inputs": [
        {
          "name": "_permit",
          "type": "bool"
        }
      ],
      "name": "forwardFunds",
      "outputs": [],
      "payable": false,
      "stateMutability": "nonpayable",
      "type": "function"
    }
  ],
  "bytecode": "0x60806040526000805460a060020a60ff021916905534801561002057600080fd5b5060405160c08061306a83398101604090815281516020830151918301516060840151608085015160a09095015160008054600160a060020a031916331781559395929391929183116100fa57604080517f08c379a000000000000000000000000000000000000000000000000000000000815260206004820152602660248201527f52617465206f6620746f6b656e2073686f756c6420626520677265617465722060448201527f7468616e20300000000000000000000000000000000000000000000000000000606482015290519081900360840190fd5b42861015801561010957508585115b151561017657604080517f08c379a000000000000000000000000000000000000000000000000000000000815260206004820152601d60248201527f4461746520706172616d657465727320617265206e6f742076616c6964000000604482015290519081900360640190fd5b600084116101e557604080517f08c379a000000000000000000000000000000000000000000000000000000000815260206004820152601c60248201527f4361702073686f756c642062652067726561746572207468616e203000000000604482015290519081900360640190fd5b600160a060020a038116151561025c57604080517f08c379a000000000000000000000000000000000000000000000000000000000815260206004820152601d60248201527f5a65726f2061646472657373206973206e6f74207065726d6974746564000000604482015290519081900360640190fd5b600160a060020a03821615156102d357604080517f08c379a000000000000000000000000000000000000000000000000000000000815260206004820152601960248201527f30782061646472657373206973206e6f7420616c6c6f77656400000000000000604482015290519081900360640190fd5b60019590955560029390935560099190915560055560038054600160a060020a03928316600160a060020a03199182161790915560008054939092169216919091179055612d44806103266000396000f3006080604052600436106200010e5763ffffffff7c01000000000000000000000000000000000000000000000000000000006000350416632c4e722e81146200011b5780633197cbb61462000145578063355274ea146200015d57806338c59de914620001755780634f935945146200018d578063518ab2a814620001b9578063521eb27314620001d15780636681b9fd14620002055780636f7bc9be146200021d578063715018a6146200024157806378e97925146200025957806379f68f8514620002715780638da5cb5b146200028e578063cc23796714620002a6578063d7e64c0014620002f6578063ec8ac4d8146200030e578063f2fde38b1462000324578063fc0c546a1462000348575b620001193362000360565b005b3480156200012857600080fd5b5062000133620003fb565b60408051918252519081900360200190f35b3480156200015257600080fd5b506200013362000401565b3480156200016a57600080fd5b506200013362000407565b3480156200018257600080fd5b50620001336200040d565b3480156200019a57600080fd5b50620001a562000413565b604080519115158252519081900360200190f35b348015620001c657600080fd5b50620001336200041e565b348015620001de57600080fd5b50620001e962000424565b60408051600160a060020a039092168252519081900360200190f35b3480156200021257600080fd5b506200013362000433565b3480156200022a57600080fd5b5062000133600160a060020a036004351662000439565b3480156200024e57600080fd5b50620001196200044b565b3480156200026657600080fd5b5062000133620004b8565b3480156200027e57600080fd5b50620001196004351515620004be565b3480156200029b57600080fd5b50620001e962000554565b348015620002b357600080fd5b50620002be62000563565b604080519788526020880196909652868601949094526060860192909252608085015260a084015260c0830152519081900360e00190f35b3480156200030357600080fd5b506200013362000581565b62000119600160a060020a036004351662000360565b3480156200033157600080fd5b5062000119600160a060020a036004351662000587565b3480156200035557600080fd5b50620001e9620005aa565b6000805474010000000000000000000000000000000000000000900460ff16156200038a57600080fd5b506000805474ff000000000000000000000000000000000000000019167401000000000000000000000000000000000000000017905534620003cd8282620005b9565b620003d982826200065e565b50506000805474ff000000000000000000000000000000000000000019169055565b60055481565b60025481565b60095481565b60075490565b600954600654101590565b60085481565b600454600160a060020a031681565b60065481565b600a6020526000908152604090205481565b600054600160a060020a031633146200046357600080fd5b60008054604051600160a060020a03909116917ff8df31144d9c2f0f6b59d69b8b98abd5459d07f2742c4df920b25aae33c6482091a26000805473ffffffffffffffffffffffffffffffffffffffff19169055565b60015481565b600054600160a060020a03163314620004d657600080fd5b620004e062000413565b8015620004eb575080155b156200053357600454604051600160a060020a0390911690303180156108fc02916000818181858888f193505050501580156200052c573d6000803e3d6000fd5b5062000551565b6003546000546200055191600160a060020a03908116911662000662565b50565b600054600160a060020a031681565b60015460025460095460055460065460075460085490919293949596565b60075481565b600054600160a060020a031633146200059f57600080fd5b620005518162000747565b600354600160a060020a031681565b6000620005c78383620007c5565b620005d282620009fa565b600654909150620005ea908363ffffffff62000a1916565b60065560085462000602908263ffffffff62000a1916565b60085562000611838262000a27565b60408051838152602081018390528151600160a060020a0386169233927f623b3804fa71d67900d064613da8f94b9617215ee90799290593e1745087ad18929081900390910190a3505050565b5050565b600082826200067f60065460095462000aa190919063ffffffff16565b6200068962000bd6565b600160a060020a039384168152919092166020820152604080820192909252905190819003606001906000f080158015620006c8573d6000803e3d6000fd5b506040519091503090813180156108fc02916000818181858888f19350505050158015620006fa573d6000803e3d6000fd5b5060408051600160a060020a0383168152426020820152308183015290517fe8519f0afa39cac28d6e8e92c67010dc3df9b88e242f07feab60342dd8e1d0739181900360600190a1505050565b600160a060020a03811615156200075d57600080fd5b60008054604051600160a060020a03808516939216917f8be0079c531659141344cd1fd0a4f28419497f9722a3daafe3b4186f6b6457e091a36000805473ffffffffffffffffffffffffffffffffffffffff1916600160a060020a0392909216919091179055565b600160a060020a03821615156200084b576040805160e560020a62461bcd028152602060048201526024808201527f42656e656669636961727920616464726573732073686f756c64206e6f74206260448201527f6520307800000000000000000000000000000000000000000000000000000000606482015290519081900360840190fd5b801515620008c9576040805160e560020a62461bcd02815260206004820152602860248201527f416d6f756e7420696e7665737465642073686f756c64206e6f7420626520657160448201527f75616c20746f2030000000000000000000000000000000000000000000000000606482015290519081900360840190fd5b600954620008eb620008db83620009fa565b6008549063ffffffff62000a1916565b111562000968576040805160e560020a62461bcd02815260206004820152602760248201527f496e766573746d656e74206d6f7265207468616e20636170206973206e6f742060448201527f616c6c6f77656400000000000000000000000000000000000000000000000000606482015290519081900360840190fd5b60015442101580156200097d57506002544211155b15156200065e576040805160e560020a62461bcd02815260206004820152602260248201527f4f66666572696e6720697320636c6f7365642f4e6f742079657420737461727460448201527f6564000000000000000000000000000000000000000000000000000000000000606482015290519081900360840190fd5b600062000a136005548362000ab490919063ffffffff16565b92915050565b8181018281101562000a1357fe5b600160a060020a0382166000908152600a6020526040902054151562000a51576007805460010190555b600160a060020a0382166000908152600a602052604090205462000a7c908263ffffffff62000a1916565b600160a060020a0383166000908152600a60205260409020556200065e828262000ae1565b60008282111562000aae57fe5b50900390565b600082151562000ac75750600062000a13565b5081810281838281151562000ad857fe5b041462000a1357fe5b600354604080517f40c10f19000000000000000000000000000000000000000000000000000000008152600160a060020a03858116600483015260248201859052915191909216916340c10f199160448083019260209291908290030181600087803b15801562000b5157600080fd5b505af115801562000b66573d6000803e3d6000fd5b505050506040513d602081101562000b7d57600080fd5b505115156200065e576040805160e560020a62461bcd02815260206004820152601b60248201527f4572726f7220696e206d696e74696e672074686520746f6b656e730000000000604482015290519081900360640190fd5b6040516121318062000be883390190560060806040523480156200001157600080fd5b506040516060806200213183398101604090815281516020830151919092015160008054600160a060020a03191633179055600160a060020a03831615156200005957600080fd5b60098054600160a060020a03808616600160a060020a0319928316179092556000805492851692909116919091178155600a8290556040805160208101909152818152620000b191906401000000006200010f810204565b60005460408051808201909152600781527f666f756e6465720000000000000000000000000000000000000000000000000060208201526200010691600160a060020a0316906401000000006200010f810204565b505050620003b6565b60008054600160a060020a031633146200012857600080fd5b50600160a060020a0382166000908152600660205260409020548015156200017c5760078054600160a060020a03851660009081526006602052604090208190559062000179906001830162000252565b90505b60606040519081016040528084600160a060020a0316815260200183815260200142815250600782815481101515620001b157fe5b60009182526020918290208351600392909202018054600160a060020a031916600160a060020a039092169190911781558282015180519192620001fe9260018501929091019062000286565b506040918201516002909101558051600160a060020a03851681526001602082015281517f6517f175230e960868c4eb1703331926f5b97569c338fad430493a0dc8896a4f929181900390910190a1505050565b81548183558181111562000281576003028160030283600052602060002091820191016200028191906200030b565b505050565b828054600181600116156101000203166002900490600052602060002090601f016020900481019282601f10620002c957805160ff1916838001178555620002f9565b82800160010185558215620002f9579182015b82811115620002f9578251825591602001919060010190620002dc565b50620003079291506200034e565b5090565b6200034b91905b8082111562000307578054600160a060020a031916815560006200033a60018301826200036b565b506000600282015560030162000312565b90565b6200034b91905b8082111562000307576000815560010162000355565b50805460018160011615610100020316600290046000825580601f10620003935750620003b3565b601f016020900490600052602060002090810190620003b391906200034e565b50565b611d6b80620003c66000396000f30060806040526004361061012f5763ffffffff60e060020a600035041663013cf08b81146101985780630b1ca49a1461027657806322888c5c14610299578063237e9492146102c0578063391068211461031e578063400e39491461033f578063520c768e146103545780635389ad7c146103695780635daf08ca1461037e5780636681b9fd1461042457806369bd3436146104395780636e676b691461044e578063715018a61461046c5780638160f0b5146104815780638da5cb5b146104965780638f4ffcb1146104c757806392d09ceb14610537578063966dae0e1461054c578063b1050da514610561578063b9f256cd14610608578063c127c247146106af578063d3c0715b14610716578063eceb294514610778578063f2fde38b146107fb578063fc0c546a1461081c575b600c54151561015357600c5461014b903463ffffffff61083116565b600c5561015c565b61015c34610844565b6040805133815234602082015281517f3317af6e3247959c45cb6051f9153437a9072683e21eda1f9b52c5bcec0e89c2929181900390910190a1005b3480156101a457600080fd5b506101b060043561085d565b60408051600160a060020a038b16815260208082018b905260608201899052871515608083015286151560a083015260c0820186905260e0820185905261010082018490526101209282018381528a519383019390935289519192916101408401918b019080838360005b8381101561023357818101518382015260200161021b565b50505050905090810190601f1680156102605780820380516001836020036101000a031916815260200191505b509a505050505050505050505060405180910390f35b34801561028257600080fd5b50610297600160a060020a0360043516610954565b005b3480156102a557600080fd5b506102ae610af3565b60408051918252519081900360200190f35b3480156102cc57600080fd5b5060408051602060046024803582810135601f8101859004850286018501909652858552610297958335953695604494919390910191908190840183828082843750949750610af99650505050505050565b34801561032a57600080fd5b506102ae600160a060020a0360043516610d91565b34801561034b57600080fd5b506102ae610da3565b34801561036057600080fd5b506102ae610da9565b34801561037557600080fd5b506102ae610daf565b34801561038a57600080fd5b50610396600435610db5565b60408051600160a060020a0385168152908101829052606060208083018281528551928401929092528451608084019186019080838360005b838110156103e75781810151838201526020016103cf565b50505050905090810190601f1680156104145780820380516001836020036101000a031916815260200191505b5094505050505060405180910390f35b34801561043057600080fd5b506102ae610e80565b34801561044557600080fd5b506102ae610e86565b34801561045a57600080fd5b50610297600435602435604435610e8c565b34801561047857600080fd5b50610297610ef7565b34801561048d57600080fd5b506102ae610f56565b3480156104a257600080fd5b506104ab610f5c565b60408051600160a060020a039092168252519081900360200190f35b3480156104d357600080fd5b50604080516020601f60643560048181013592830184900484028501840190955281845261029794600160a060020a03813581169560248035966044359093169536956084949201918190840183828082843750949750610f6b9650505050505050565b34801561054357600080fd5b506102ae6110f2565b34801561055857600080fd5b506104ab6110f8565b34801561056d57600080fd5b50604080516020600460443581810135601f81018490048402850184019095528484526102ae948235600160a060020a031694602480359536959460649492019190819084018382808284375050604080516020601f89358b018035918201839004830284018301909452808352979a9998810197919650918201945092508291508401838280828437509497506111079650505050505050565b34801561061457600080fd5b50604080516020600460443581810135601f81018490048402850184019095528484526102ae948235600160a060020a031694602480359536959460649492019190819084018382808284375050604080516020601f89358b018035918201839004830284018301909452808352979a9998810197919650918201945092508291508401838280828437509497506113799650505050505050565b3480156106bb57600080fd5b5060408051602060046024803582810135601f8101859004850286018501909652858552610297958335600160a060020a03169536956044949193909101919081908401838280828437509497506113b39650505050505050565b34801561072257600080fd5b50604080516020600460443581810135601f81018490048402850184019095528484526102ae94823594602480351515953695946064949201919081908401838280828437509497506114ef9650505050505050565b34801561078457600080fd5b50604080516020601f6064356004818101359283018490048402850184019095528184526107e794803594600160a060020a0360248035919091169560443595369560849493019181908401838280828437509497506118939650505050505050565b604080519115158252519081900360200190f35b34801561080757600080fd5b50610297600160a060020a03600435166119bb565b34801561082857600080fd5b506104ab6119de565b8181018281101561083e57fe5b92915050565b600b54610857908263ffffffff61083116565b600b5550565b600480548290811061086b57fe5b6000918252602091829020600a91909102018054600180830154600280850180546040805161010096831615969096026000190190911692909204601f8101889004880285018801909252818452600160a060020a039094169650909491929183018282801561091c5780601f106108f15761010080835404028352916020019161091c565b820191906000526020600020905b8154815290600101906020018083116108ff57829003601f168201915b50505060038401546004850154600586015460068701546007909701549596929560ff80841696506101009093049092169350919089565b60008054600160a060020a0316331461096c57600080fd5b600160a060020a038216600090815260066020526040902054151561099057600080fd5b50600160a060020a0381166000908152600660205260409020545b60075460001901811015610a505760078054600183019081106109ca57fe5b90600052602060002090600302016007828154811015156109e757fe5b6000918252602090912082546003909202018054600160a060020a031916600160a060020a0390921691909117815560018083018054610a3e92808501929160026000199282161561010002929092011604611a84565b506002918201549101556001016109ab565b600780546000198101908110610a6257fe5b6000918252602082206003909102018054600160a060020a031916815590610a8d6001830182611b09565b506000600291909101556007805490610aaa906000198301611b4d565b5060408051600160a060020a03841681526000602082015281517f6517f175230e960868c4eb1703331926f5b97569c338fad430493a0dc8896a4f929181900390910190a15050565b30315b90565b6000600483815481101515610b0a57fe5b90600052602060002090600a02019050806003015442118015610b325750600481015460ff16155b8015610c355750805460018201546040516c01000000000000000000000000600160a060020a0390931692830260208083019182526034830184905286518793605401918401908083835b60208310610b9c5780518252601f199092019160209182019101610b7d565b6001836020036101000a03801982511681845116808217855250505050505090500193505050506040516020818303038152906040526040518082805190602001908083835b60208310610c015780518252601f199092019160209182019101610be2565b5181516020939093036101000a60001901801990911692169190911790526040519201829003909120600785015414925050505b8015610c475750600154816005015410155b1515610c5257600080fd5b600354670de0b6b3a76400000281600601541115610d1e5760048101805460ff191660019081179091558154908201546040518451600160a060020a03909316928591908190602084019080838360005b83811015610cbb578181015183820152602001610ca3565b50505050905090810190601f168015610ce85780820380516001836020036101000a031916815260200191505b5091505060006040518083038185875af1925050501515610d0857600080fd5b60048101805461ff001916610100179055610d2c565b60048101805461ff00191690555b6006810154600582015460048301546040805187815260208101949094528381019290925260ff6101009091041615156060830152517fe5bed13d5b2fec49660744c6b390a680d84a17acd7acdba2ade21c6848f1565d9181900360800190a1505050565b60066020526000908152604090205481565b60055481565b60035481565b600a5481565b6007805482908110610dc357fe5b600091825260209182902060039091020180546001808301805460408051601f6002600019968516156101000296909601909316949094049182018790048702840187019052808352600160a060020a039093169550929390929190830182828015610e705780601f10610e4557610100808354040283529160200191610e70565b820191906000526020600020905b815481529060010190602001808311610e5357829003601f168201915b5050505050908060020154905083565b600b5481565b60025481565b600054600160a060020a03163314610ea357600080fd5b600183905560028290556003819055604080518481526020810184905280820183905290517fa164fca4e776db0f3f67c738f58503bb41d0a9b0adfeb977b4b26dab001cd91c9181900360600190a1505050565b600054600160a060020a03163314610f0e57600080fd5b60008054604051600160a060020a03909116917ff8df31144d9c2f0f6b59d69b8b98abd5459d07f2742c4df920b25aae33c6482091a260008054600160a060020a0319169055565b60015481565b600054600160a060020a031681565b600954604080517f23b872dd000000000000000000000000000000000000000000000000000000008152600160a060020a03878116600483015230602483015260448201879052915191909216916323b872dd9160648083019260209291908290030181600087803b158015610fe057600080fd5b505af1158015610ff4573d6000803e3d6000fd5b505050506040513d602081101561100a57600080fd5b5051151561101757600080fd5b7f97b01e9ec0ff08aa780226dc673f6ab34661565193002bbd6bd066e7ec01beec848484846040518085600160a060020a0316600160a060020a0316815260200184815260200183600160a060020a0316600160a060020a0316815260200180602001828103825283818151815260200191508051906020019080838360005b838110156110af578181015183820152602001611097565b50505050905090810190601f1680156110dc5780820380516001836020036101000a031916815260200191505b509550505050505060405180910390a150505050565b600c5481565b600854600160a060020a031681565b336000908152600660205260408120548190151561112457600080fd5b60048054906111369060018301611b7e565b915060048281548110151561114757fe5b6000918252602091829020600a91909102018054600160a060020a031916600160a060020a03891617815560018101879055855190925061119091600284019190870190611baa565b50600254603c024201600382015560048101805461ffff191690556000600582018190556006820155604051600160a060020a0387166c010000000000000000000000000260208083019182526034830188905285518993899388939092605490920191908401908083835b6020831061121b5780518252601f1990920191602091820191016111fc565b6001836020036101000a03801982511681845116808217855250505050505090500193505050506040516020818303038152906040526040518082805190602001908083835b602083106112805780518252601f199092019160209182019101611261565b51815160209384036101000a6000190180199092169116179052604080519290940182900382206007880155878252600160a060020a038c16828201529281018a90526080606082018181528a519183019190915289517fa565ac3b41596a62c697fe3b6c63aaa18ce2b6564ab2426003dcd6af05c2c93696508895508c948c94508b93929160a084019185019080838360005b8381101561132c578181015183820152602001611314565b50505050905090810190601f1680156113595780820380516001836020036101000a031916815260200191505b509550505050505060405180910390a16001820160055550949350505050565b33600090815260066020526040812054151561139457600080fd5b6113aa8585670de0b6b3a7640000028585611107565b95945050505050565b60008054600160a060020a031633146113cb57600080fd5b50600160a060020a03821660009081526006602052604090205480151561141c5760078054600160a060020a0385166000908152600660205260409020819055906114199060018301611b4d565b90505b60606040519081016040528084600160a060020a031681526020018381526020014281525060078281548110151561145057fe5b60009182526020918290208351600392909202018054600160a060020a031916600160a060020a03909216919091178155828201518051919261149b92600185019290910190611baa565b506040918201516002909101558051600160a060020a03851681526001602082015281517f6517f175230e960868c4eb1703331926f5b97569c338fad430493a0dc8896a4f929181900390910190a1505050565b600954604080517f70a0823100000000000000000000000000000000000000000000000000000000815233600482015290516000928392670de0b6b3a764000092600160a060020a03909216916370a082319160248082019260209290919082900301818887803b15801561156357600080fd5b505af1158015611577573d6000803e3d6000fd5b505050506040513d602081101561158d57600080fd5b5051101561159a57600080fd5b60048054869081106115a857fe5b600091825260208083203384526009600a90930201918201905260409091205490915060ff16156115d857600080fd5b3360009081526009820160205260409020805460ff191660019081179091556005820180549091019055831561175057611746611735600960009054906101000a9004600160a060020a0316600160a060020a03166318160ddd6040518163ffffffff1660e060020a028152600401602060405180830381600087803b15801561166157600080fd5b505af1158015611675573d6000803e3d6000fd5b505050506040513d602081101561168b57600080fd5b5051600954604080517f70a082310000000000000000000000000000000000000000000000000000000081523360048201529051600160a060020a03909216916370a08231916024808201926020929091908290030181600087803b1580156116f357600080fd5b505af1158015611707573d6000803e3d6000fd5b505050506040513d602081101561171d57600080fd5b5051670de0b6b3a7640000029063ffffffff6119ed16565b60068301549063ffffffff61083116565b60068201556117c0565b6117ba6117a9600960009054906101000a9004600160a060020a0316600160a060020a03166318160ddd6040518163ffffffff1660e060020a028152600401602060405180830381600087803b15801561166157600080fd5b60068301549063ffffffff611a0216565b60068201555b7fc34f869b7ff431b034b7b9aea9822dac189a685e0b015c7d1be3add3f89128e885853386604051808581526020018415151515815260200183600160a060020a0316600160a060020a0316815260200180602001828103825283818151815260200191508051906020019080838360005b8381101561184a578181015183820152602001611832565b50505050905090810190601f1680156118775780820380516001836020036101000a031916815260200191505b509550505050505060405180910390a160050154949350505050565b6000806004868154811015156118a557fe5b90600052602060002090600a020190508484846040516020018084600160a060020a0316600160a060020a03166c0100000000000000000000000002815260140183815260200182805190602001908083835b602083106119175780518252601f1990920191602091820191016118f8565b6001836020036101000a03801982511681845116808217855250505050505090500193505050506040516020818303038152906040526040518082805190602001908083835b6020831061197c5780518252601f19909201916020918201910161195d565b5181516000196020949094036101000a939093019283169219169190911790526040519201829003909120600785015414945050505050949350505050565b600054600160a060020a031633146119d257600080fd5b6119db81611a14565b50565b600954600160a060020a031681565b600081838115156119fa57fe5b049392505050565b600082821115611a0e57fe5b50900390565b600160a060020a0381161515611a2957600080fd5b60008054604051600160a060020a03808516939216917f8be0079c531659141344cd1fd0a4f28419497f9722a3daafe3b4186f6b6457e091a360008054600160a060020a031916600160a060020a0392909216919091179055565b828054600181600116156101000203166002900490600052602060002090601f016020900481019282601f10611abd5780548555611af9565b82800160010185558215611af957600052602060002091601f016020900482015b82811115611af9578254825591600101919060010190611ade565b50611b05929150611c18565b5090565b50805460018160011615610100020316600290046000825580601f10611b2f57506119db565b601f0160209004906000526020600020908101906119db9190611c18565b815481835581811115611b7957600302816003028360005260206000209182019101611b799190611c32565b505050565b815481835581811115611b7957600a0281600a028360005260206000209182019101611b799190611c6d565b828054600181600116156101000203166002900490600052602060002090601f016020900481019282601f10611beb57805160ff1916838001178555611af9565b82800160010185558215611af9579182015b82811115611af9578251825591602001919060010190611bfd565b610af691905b80821115611b055760008155600101611c1e565b610af691905b80821115611b05578054600160a060020a03191681556000611c5d6001830182611b09565b5060006002820155600301611c38565b610af691905b80821115611b05578054600160a060020a0319168155600060018201819055611c9f6002830182611b09565b60006003830181905560048301805461ffff19169055600583018190556006830181905560078301819055611cd8906008840190611ce1565b50600a01611c73565b50805460008255600202906000526020600020908101906119db9190610af691905b80821115611b0557805474ffffffffffffffffffffffffffffffffffffffffff191681556000611d366001830182611b09565b50600201611d035600a165627a7a72305820423640b8a91a67efdf4bad89ae24cef4b8a7b60f241f31ba3c8b4b24fc171af90029a165627a7a723058207ff5a482977137cc18474e9b6f048aaaffb04b19cfb0dbaee4d88f4dbe2f16730029",
  "source": "pragma solidity ^0.4.24;\n\nimport \"./DAO.sol\";\nimport \"./interfaces/IERC20.sol\";\nimport \"openzeppelin-solidity/contracts/ReentrancyGuard.sol\";\nimport \"openzeppelin-solidity/contracts/math/SafeMath.sol\";\nimport \"openzeppelin-solidity/contracts/ownership/Ownable.sol\";\n\n/**\n * @title STO module for standard capped crowdsale\n */\ncontract CrowdFund is Ownable, ReentrancyGuard {\n    using SafeMath for uint256;\n\n    // Strart time of the crowdfund\n    uint256 public startTime;\n    // End time of the crowdfund\n    uint256 public endTime;\n\n    //variable that hold the token address\n    address public token;\n\n    // Address where funds are collected and tokens are issued to\n    address public wallet;\n\n    // How many token units a buyer gets per wei / base unit of POLY\n    uint256 public rate;\n\n    // Amount of funds raised\n    uint256 public fundsRaised;\n\n    uint256 public investorCount;\n\n    // Amount of tokens sold\n    uint256 public tokensSold;\n\n    //How many tokens this STO will be allowed to sell to investors\n    uint256 public cap;\n\n    mapping (address => uint256) public investors;\n\n    /**\n    * Event for token purchase logging\n    * @param purchaser who paid for the tokens\n    * @param beneficiary who got the tokens\n    * @param value weis paid for purchase\n    * @param amount amount of tokens purchased\n    */\n    event TokenPurchase(address indexed purchaser, address indexed beneficiary, uint256 value, uint256 amount);\n    event LogNewDAOCreated(address _daoAddress, uint256 _timestamp, address _crowdfund);\n\n\n    /**\n     * @notice Function used to intialize the contract variables\n     * @param _startTime Unix timestamp at which offering get started\n     * @param _endTime Unix timestamp at which offering get ended\n     * @param _cap Maximum No. of tokens for sale\n     * @param _rate Token units a buyer gets per wei / base unit of POLY\n     * @param _tokenAddress Address of the token that need to be delieverd as ROI\n     * @param _owner Owner of the issuance\n     */\n    \n    constructor(\n        uint256 _startTime,\n        uint256 _endTime,\n        uint256 _cap,\n        uint256 _rate,\n        address _tokenAddress,\n        address _owner\n    )\n    public\n    {   \n        require(_rate > 0, \"Rate of token should be greater than 0\");\n        require(_startTime >= now && _endTime > _startTime, \"Date parameters are not valid\");\n        require(_cap > 0, \"Cap should be greater than 0\");\n        require(_owner != address(0), \"Zero address is not permitted\");\n        require(_tokenAddress != address(0),\"0x address is not allowed\");\n        startTime = _startTime;\n        endTime = _endTime;\n        cap = _cap;\n        rate = _rate;\n        token = _tokenAddress;\n        owner = _owner;\n    }\n\n    //////////////////////////////////\n    /**\n    * @notice fallback function ***DO NOT OVERRIDE***\n    */\n    function () external payable {\n        buyTokens(msg.sender);\n    }\n\n    /**\n      * @notice low level token purchase ***DO NOT OVERRIDE***\n      * @param _beneficiary Address performing the token purchase\n      */\n    function buyTokens(address _beneficiary) public payable nonReentrant {\n        uint256 weiAmount = msg.value;\n        _processTx(_beneficiary, weiAmount);\n        _postValidatePurchase(_beneficiary, weiAmount);\n    }\n\n    /**\n    * @notice Checks whether the cap has been reached.\n    * @return bool Whether the cap was reached\n    */\n    function capReached() public view returns (bool) {\n        return fundsRaised >= cap;\n    }\n\n    /**\n     * @notice Return the total no. of investors\n     */\n    function getNumberInvestors() public view returns (uint256) {\n        return investorCount;\n    }\n\n    /**\n     * @notice Return the STO details\n     */\n    function getCrowdFundDetails() public view returns(uint256, uint256, uint256, uint256, uint256, uint256, uint256) {\n        return (\n            startTime,\n            endTime,\n            cap,\n            rate,\n            fundsRaised,\n            investorCount,\n            tokensSold\n        );\n    }\n\n    // -----------------------------------------\n    // Internal interface (extensible)\n    // -----------------------------------------\n    /**\n      * Processing the purchase as well as verify the required validations\n      * @param _beneficiary Address performing the token purchase\n      * @param _investedAmount Value in wei involved in the purchase\n    */\n    function _processTx(address _beneficiary, uint256 _investedAmount) internal {\n\n        _preValidatePurchase(_beneficiary, _investedAmount);\n        // calculate token amount to be created\n        uint256 tokens = _getTokenAmount(_investedAmount);\n\n        // update state\n        fundsRaised = fundsRaised.add(_investedAmount);\n        tokensSold = tokensSold.add(tokens);\n\n        _processPurchase(_beneficiary, tokens);\n        emit TokenPurchase(msg.sender, _beneficiary, _investedAmount, tokens);\n    }\n\n    /**\n    * @notice Validation of an incoming purchase.\n      Use require statements to revert state when conditions are not met. Use super to concatenate validations.\n    * @param _beneficiary Address performing the token purchase\n    * @param _investedAmount Value in wei involved in the purchase\n    */\n    function _preValidatePurchase(address _beneficiary, uint256 _investedAmount) internal view {\n        require(_beneficiary != address(0), \"Beneficiary address should not be 0x\");\n        require(_investedAmount != 0, \"Amount invested should not be equal to 0\");\n        require(tokensSold.add(_getTokenAmount(_investedAmount)) <= cap, \"Investment more than cap is not allowed\");\n        require(now >= startTime && now <= endTime, \"Offering is closed/Not yet started\");\n    }\n\n    /**\n    * @notice Validation of an executed purchase.\n      Observe state and use revert statements to undo rollback when valid conditions are not met.\n    */\n    function _postValidatePurchase(address /*_beneficiary*/, uint256 /*_investedAmount*/) internal pure {\n      // optional override\n    }\n\n    /**\n    * @notice Source of tokens.\n      Override this method to modify the way in which the crowdsale ultimately gets and sends its tokens.\n    * @param _beneficiary Address performing the token purchase\n    * @param _tokenAmount Number of tokens to be emitted\n    */\n    function _deliverTokens(address _beneficiary, uint256 _tokenAmount) internal {\n        require(IERC20(token).mint(_beneficiary, _tokenAmount), \"Error in minting the tokens\");\n    }\n\n    /**\n    * @notice Executed when a purchase has been validated and is ready to be executed. Not necessarily emits/sends tokens.\n    * @param _beneficiary Address receiving the tokens\n    * @param _tokenAmount Number of tokens to be purchased\n    */\n    function _processPurchase(address _beneficiary, uint256 _tokenAmount) internal {\n        if (investors[_beneficiary] == 0) {\n            investorCount = investorCount + 1;\n        }\n        investors[_beneficiary] = investors[_beneficiary].add(_tokenAmount);\n\n        _deliverTokens(_beneficiary, _tokenAmount);\n    }\n\n    /**\n    * @notice Override to extend the way in which ether is converted to tokens.\n    * @param _investedAmount Value in wei to be converted into tokens\n    * @return Number of tokens that can be purchased with the specified _investedAmount\n    */\n    function _getTokenAmount(uint256 _investedAmount) internal view returns (uint256) {\n        return _investedAmount.mul(rate);\n    }\n\n    /**\n    * @notice Determines how ETH is stored/forwarded on purchases.\n    * @param _permit It is the flag used to create the DAO when it true\n    */\n    function forwardFunds(bool _permit) onlyOwner public {\n        if (capReached() && !_permit) {\n            wallet.transfer(address(this).balance);\n        } else {\n            _createDAO(token, owner);\n        }\n        \n    }\n\n    function _createDAO(address _tokenAddress, address _owner) internal {\n        address _daoAddress = new DAO(_tokenAddress, _owner, cap.sub(fundsRaised));\n        address(this).transfer(address(this).balance);\n        emit LogNewDAOCreated(_daoAddress, block.timestamp, address(this));\n    }\n\n\n}\n",
  "sourcePath": "/Users/newsgate/cc/ethIn/relayer-kit/ccfc/collaterized-crowdfunding/contracts/CrowdFund.sol",
  "compiler": {
    "name": "solc",
    "version": "0.4.24+commit.e67f0147.Emscripten.clang"
  },
  "schemaVersion": "2.0.1",
  "updatedAt": "2018-08-12T04:26:34.964Z"
}