{
  "contractName": "DAO",
  "abi": [
    {
      "constant": true,
      "inputs": [
        {
          "name": "",
          "type": "uint256"
        }
      ],
      "name": "proposals",
      "outputs": [
        {
          "name": "recipient",
          "type": "address"
        },
        {
          "name": "amount",
          "type": "uint256"
        },
        {
          "name": "description",
          "type": "string"
        },
        {
          "name": "minExecutionDate",
          "type": "uint256"
        },
        {
          "name": "executed",
          "type": "bool"
        },
        {
          "name": "proposalPassed",
          "type": "bool"
        },
        {
          "name": "numberOfVotes",
          "type": "uint256"
        },
        {
          "name": "currentResultWeight",
          "type": "uint256"
        },
        {
          "name": "proposalHash",
          "type": "bytes32"
        }
      ],
      "payable": false,
      "stateMutability": "view",
      "type": "function"
    },
    {
      "constant": true,
      "inputs": [
        {
          "name": "",
          "type": "address"
        }
      ],
      "name": "memberId",
      "outputs": [
        {
          "name": "",
          "type": "uint256"
        }
      ],
      "payable": false,
      "stateMutability": "view",
      "type": "function"
    },
    {
      "constant": true,
      "inputs": [],
      "name": "numProposals",
      "outputs": [
        {
          "name": "",
          "type": "uint256"
        }
      ],
      "payable": false,
      "stateMutability": "view",
      "type": "function"
    },
    {
      "constant": true,
      "inputs": [],
      "name": "majorityMarginWeight",
      "outputs": [
        {
          "name": "",
          "type": "uint256"
        }
      ],
      "payable": false,
      "stateMutability": "view",
      "type": "function"
    },
    {
      "constant": true,
      "inputs": [],
      "name": "requiredDebt",
      "outputs": [
        {
          "name": "",
          "type": "uint256"
        }
      ],
      "payable": false,
      "stateMutability": "view",
      "type": "function"
    },
    {
      "constant": true,
      "inputs": [
        {
          "name": "",
          "type": "uint256"
        }
      ],
      "name": "members",
      "outputs": [
        {
          "name": "member",
          "type": "address"
        },
        {
          "name": "memberName",
          "type": "string"
        },
        {
          "name": "memberSince",
          "type": "uint256"
        }
      ],
      "payable": false,
      "stateMutability": "view",
      "type": "function"
    },
    {
      "constant": true,
      "inputs": [],
      "name": "fundsRaised",
      "outputs": [
        {
          "name": "",
          "type": "uint256"
        }
      ],
      "payable": false,
      "stateMutability": "view",
      "type": "function"
    },
    {
      "constant": true,
      "inputs": [],
      "name": "debatingPeriodInMinutes",
      "outputs": [
        {
          "name": "",
          "type": "uint256"
        }
      ],
      "payable": false,
      "stateMutability": "view",
      "type": "function"
    },
    {
      "constant": false,
      "inputs": [],
      "name": "renounceOwnership",
      "outputs": [],
      "payable": false,
      "stateMutability": "nonpayable",
      "type": "function"
    },
    {
      "constant": true,
      "inputs": [],
      "name": "minimumQuorum",
      "outputs": [
        {
          "name": "",
          "type": "uint256"
        }
      ],
      "payable": false,
      "stateMutability": "view",
      "type": "function"
    },
    {
      "constant": true,
      "inputs": [],
      "name": "owner",
      "outputs": [
        {
          "name": "",
          "type": "address"
        }
      ],
      "payable": false,
      "stateMutability": "view",
      "type": "function"
    },
    {
      "constant": true,
      "inputs": [],
      "name": "collateralAmount",
      "outputs": [
        {
          "name": "",
          "type": "uint256"
        }
      ],
      "payable": false,
      "stateMutability": "view",
      "type": "function"
    },
    {
      "constant": true,
      "inputs": [],
      "name": "factoryAddress",
      "outputs": [
        {
          "name": "",
          "type": "address"
        }
      ],
      "payable": false,
      "stateMutability": "view",
      "type": "function"
    },
    {
      "constant": false,
      "inputs": [
        {
          "name": "_newOwner",
          "type": "address"
        }
      ],
      "name": "transferOwnership",
      "outputs": [],
      "payable": false,
      "stateMutability": "nonpayable",
      "type": "function"
    },
    {
      "constant": true,
      "inputs": [],
      "name": "token",
      "outputs": [
        {
          "name": "",
          "type": "address"
        }
      ],
      "payable": false,
      "stateMutability": "view",
      "type": "function"
    },
    {
      "inputs": [
        {
          "name": "_tokenAddress",
          "type": "address"
        },
        {
          "name": "_daoOwner",
          "type": "address"
        },
        {
          "name": "_amtEthNeeded",
          "type": "uint256"
        }
      ],
      "payable": false,
      "stateMutability": "nonpayable",
      "type": "constructor"
    },
    {
      "payable": true,
      "stateMutability": "payable",
      "type": "fallback"
    },
    {
      "anonymous": false,
      "inputs": [
        {
          "indexed": false,
          "name": "proposalID",
          "type": "uint256"
        },
        {
          "indexed": false,
          "name": "recipient",
          "type": "address"
        },
        {
          "indexed": false,
          "name": "amount",
          "type": "uint256"
        },
        {
          "indexed": false,
          "name": "description",
          "type": "string"
        }
      ],
      "name": "LogProposalAdded",
      "type": "event"
    },
    {
      "anonymous": false,
      "inputs": [
        {
          "indexed": false,
          "name": "proposalID",
          "type": "uint256"
        },
        {
          "indexed": false,
          "name": "position",
          "type": "bool"
        },
        {
          "indexed": false,
          "name": "voter",
          "type": "address"
        },
        {
          "indexed": false,
          "name": "justification",
          "type": "string"
        }
      ],
      "name": "Voted",
      "type": "event"
    },
    {
      "anonymous": false,
      "inputs": [
        {
          "indexed": false,
          "name": "proposalID",
          "type": "uint256"
        },
        {
          "indexed": false,
          "name": "result",
          "type": "uint256"
        },
        {
          "indexed": false,
          "name": "quorum",
          "type": "uint256"
        },
        {
          "indexed": false,
          "name": "active",
          "type": "bool"
        }
      ],
      "name": "LogProposalTallied",
      "type": "event"
    },
    {
      "anonymous": false,
      "inputs": [
        {
          "indexed": false,
          "name": "member",
          "type": "address"
        },
        {
          "indexed": false,
          "name": "isMember",
          "type": "bool"
        }
      ],
      "name": "LogMembershipChanged",
      "type": "event"
    },
    {
      "anonymous": false,
      "inputs": [
        {
          "indexed": false,
          "name": "newMinimumQuorum",
          "type": "uint256"
        },
        {
          "indexed": false,
          "name": "newDebatingPeriodInMinutes",
          "type": "uint256"
        },
        {
          "indexed": false,
          "name": "newmajorityMarginWeight",
          "type": "uint256"
        }
      ],
      "name": "LogChangeOfRules",
      "type": "event"
    },
    {
      "anonymous": false,
      "inputs": [
        {
          "indexed": false,
          "name": "sender",
          "type": "address"
        },
        {
          "indexed": false,
          "name": "amount",
          "type": "uint256"
        }
      ],
      "name": "LogReceivedEther",
      "type": "event"
    },
    {
      "anonymous": false,
      "inputs": [
        {
          "indexed": false,
          "name": "_from",
          "type": "address"
        },
        {
          "indexed": false,
          "name": "_value",
          "type": "uint256"
        },
        {
          "indexed": false,
          "name": "_token",
          "type": "address"
        },
        {
          "indexed": false,
          "name": "_extraData",
          "type": "bytes"
        }
      ],
      "name": "LogReceivedTokens",
      "type": "event"
    },
    {
      "anonymous": false,
      "inputs": [
        {
          "indexed": true,
          "name": "previousOwner",
          "type": "address"
        }
      ],
      "name": "OwnershipRenounced",
      "type": "event"
    },
    {
      "anonymous": false,
      "inputs": [
        {
          "indexed": true,
          "name": "previousOwner",
          "type": "address"
        },
        {
          "indexed": true,
          "name": "newOwner",
          "type": "address"
        }
      ],
      "name": "OwnershipTransferred",
      "type": "event"
    },
    {
      "constant": false,
      "inputs": [
        {
          "name": "targetMember",
          "type": "address"
        },
        {
          "name": "memberName",
          "type": "string"
        }
      ],
      "name": "addMember",
      "outputs": [],
      "payable": false,
      "stateMutability": "nonpayable",
      "type": "function"
    },
    {
      "constant": false,
      "inputs": [
        {
          "name": "targetMember",
          "type": "address"
        }
      ],
      "name": "removeMember",
      "outputs": [],
      "payable": false,
      "stateMutability": "nonpayable",
      "type": "function"
    },
    {
      "constant": false,
      "inputs": [
        {
          "name": "minimumQuorumForProposals",
          "type": "uint256"
        },
        {
          "name": "minutesForDebate",
          "type": "uint256"
        },
        {
          "name": "marginOfVotesForMajority",
          "type": "uint256"
        }
      ],
      "name": "changeVotingRules",
      "outputs": [],
      "payable": false,
      "stateMutability": "nonpayable",
      "type": "function"
    },
    {
      "constant": false,
      "inputs": [
        {
          "name": "beneficiary",
          "type": "address"
        },
        {
          "name": "weiAmount",
          "type": "uint256"
        },
        {
          "name": "jobDescription",
          "type": "string"
        },
        {
          "name": "transactionBytecode",
          "type": "bytes"
        }
      ],
      "name": "newProposal",
      "outputs": [
        {
          "name": "proposalID",
          "type": "uint256"
        }
      ],
      "payable": false,
      "stateMutability": "nonpayable",
      "type": "function"
    },
    {
      "constant": false,
      "inputs": [
        {
          "name": "beneficiary",
          "type": "address"
        },
        {
          "name": "etherAmount",
          "type": "uint256"
        },
        {
          "name": "jobDescription",
          "type": "string"
        },
        {
          "name": "transactionBytecode",
          "type": "bytes"
        }
      ],
      "name": "newProposalInEther",
      "outputs": [
        {
          "name": "proposalID",
          "type": "uint256"
        }
      ],
      "payable": false,
      "stateMutability": "nonpayable",
      "type": "function"
    },
    {
      "constant": true,
      "inputs": [
        {
          "name": "proposalNumber",
          "type": "uint256"
        },
        {
          "name": "beneficiary",
          "type": "address"
        },
        {
          "name": "weiAmount",
          "type": "uint256"
        },
        {
          "name": "transactionBytecode",
          "type": "bytes"
        }
      ],
      "name": "checkProposalCode",
      "outputs": [
        {
          "name": "codeChecksOut",
          "type": "bool"
        }
      ],
      "payable": false,
      "stateMutability": "view",
      "type": "function"
    },
    {
      "constant": false,
      "inputs": [
        {
          "name": "proposalNumber",
          "type": "uint256"
        },
        {
          "name": "supportsProposal",
          "type": "bool"
        },
        {
          "name": "justificationText",
          "type": "string"
        }
      ],
      "name": "vote",
      "outputs": [
        {
          "name": "voteID",
          "type": "uint256"
        }
      ],
      "payable": false,
      "stateMutability": "nonpayable",
      "type": "function"
    },
    {
      "constant": false,
      "inputs": [
        {
          "name": "proposalNumber",
          "type": "uint256"
        },
        {
          "name": "transactionBytecode",
          "type": "bytes"
        }
      ],
      "name": "executeProposal",
      "outputs": [],
      "payable": false,
      "stateMutability": "nonpayable",
      "type": "function"
    },
    {
      "constant": true,
      "inputs": [],
      "name": "getTotalfunds",
      "outputs": [
        {
          "name": "",
          "type": "uint256"
        }
      ],
      "payable": false,
      "stateMutability": "view",
      "type": "function"
    },
    {
      "constant": false,
      "inputs": [
        {
          "name": "_from",
          "type": "address"
        },
        {
          "name": "_value",
          "type": "uint256"
        },
        {
          "name": "_token",
          "type": "address"
        },
        {
          "name": "_extraData",
          "type": "bytes"
        }
      ],
      "name": "receiveApproval",
      "outputs": [],
      "payable": false,
      "stateMutability": "nonpayable",
      "type": "function"
    }
  ],
  "bytecode": "0x60806040523480156200001157600080fd5b506040516060806200213183398101604090815281516020830151919092015160008054600160a060020a03191633179055600160a060020a03831615156200005957600080fd5b60098054600160a060020a03808616600160a060020a0319928316179092556000805492851692909116919091178155600a8290556040805160208101909152818152620000b191906401000000006200010f810204565b60005460408051808201909152600781527f666f756e6465720000000000000000000000000000000000000000000000000060208201526200010691600160a060020a0316906401000000006200010f810204565b505050620003b6565b60008054600160a060020a031633146200012857600080fd5b50600160a060020a0382166000908152600660205260409020548015156200017c5760078054600160a060020a03851660009081526006602052604090208190559062000179906001830162000252565b90505b60606040519081016040528084600160a060020a0316815260200183815260200142815250600782815481101515620001b157fe5b60009182526020918290208351600392909202018054600160a060020a031916600160a060020a039092169190911781558282015180519192620001fe9260018501929091019062000286565b506040918201516002909101558051600160a060020a03851681526001602082015281517f6517f175230e960868c4eb1703331926f5b97569c338fad430493a0dc8896a4f929181900390910190a1505050565b81548183558181111562000281576003028160030283600052602060002091820191016200028191906200030b565b505050565b828054600181600116156101000203166002900490600052602060002090601f016020900481019282601f10620002c957805160ff1916838001178555620002f9565b82800160010185558215620002f9579182015b82811115620002f9578251825591602001919060010190620002dc565b50620003079291506200034e565b5090565b6200034b91905b8082111562000307578054600160a060020a031916815560006200033a60018301826200036b565b506000600282015560030162000312565b90565b6200034b91905b8082111562000307576000815560010162000355565b50805460018160011615610100020316600290046000825580601f10620003935750620003b3565b601f016020900490600052602060002090810190620003b391906200034e565b50565b611d6b80620003c66000396000f30060806040526004361061012f5763ffffffff60e060020a600035041663013cf08b81146101985780630b1ca49a1461027657806322888c5c14610299578063237e9492146102c0578063391068211461031e578063400e39491461033f578063520c768e146103545780635389ad7c146103695780635daf08ca1461037e5780636681b9fd1461042457806369bd3436146104395780636e676b691461044e578063715018a61461046c5780638160f0b5146104815780638da5cb5b146104965780638f4ffcb1146104c757806392d09ceb14610537578063966dae0e1461054c578063b1050da514610561578063b9f256cd14610608578063c127c247146106af578063d3c0715b14610716578063eceb294514610778578063f2fde38b146107fb578063fc0c546a1461081c575b600c54151561015357600c5461014b903463ffffffff61083116565b600c5561015c565b61015c34610844565b6040805133815234602082015281517f3317af6e3247959c45cb6051f9153437a9072683e21eda1f9b52c5bcec0e89c2929181900390910190a1005b3480156101a457600080fd5b506101b060043561085d565b60408051600160a060020a038b16815260208082018b905260608201899052871515608083015286151560a083015260c0820186905260e0820185905261010082018490526101209282018381528a519383019390935289519192916101408401918b019080838360005b8381101561023357818101518382015260200161021b565b50505050905090810190601f1680156102605780820380516001836020036101000a031916815260200191505b509a505050505050505050505060405180910390f35b34801561028257600080fd5b50610297600160a060020a0360043516610954565b005b3480156102a557600080fd5b506102ae610af3565b60408051918252519081900360200190f35b3480156102cc57600080fd5b5060408051602060046024803582810135601f8101859004850286018501909652858552610297958335953695604494919390910191908190840183828082843750949750610af99650505050505050565b34801561032a57600080fd5b506102ae600160a060020a0360043516610d91565b34801561034b57600080fd5b506102ae610da3565b34801561036057600080fd5b506102ae610da9565b34801561037557600080fd5b506102ae610daf565b34801561038a57600080fd5b50610396600435610db5565b60408051600160a060020a0385168152908101829052606060208083018281528551928401929092528451608084019186019080838360005b838110156103e75781810151838201526020016103cf565b50505050905090810190601f1680156104145780820380516001836020036101000a031916815260200191505b5094505050505060405180910390f35b34801561043057600080fd5b506102ae610e80565b34801561044557600080fd5b506102ae610e86565b34801561045a57600080fd5b50610297600435602435604435610e8c565b34801561047857600080fd5b50610297610ef7565b34801561048d57600080fd5b506102ae610f56565b3480156104a257600080fd5b506104ab610f5c565b60408051600160a060020a039092168252519081900360200190f35b3480156104d357600080fd5b50604080516020601f60643560048181013592830184900484028501840190955281845261029794600160a060020a03813581169560248035966044359093169536956084949201918190840183828082843750949750610f6b9650505050505050565b34801561054357600080fd5b506102ae6110f2565b34801561055857600080fd5b506104ab6110f8565b34801561056d57600080fd5b50604080516020600460443581810135601f81018490048402850184019095528484526102ae948235600160a060020a031694602480359536959460649492019190819084018382808284375050604080516020601f89358b018035918201839004830284018301909452808352979a9998810197919650918201945092508291508401838280828437509497506111079650505050505050565b34801561061457600080fd5b50604080516020600460443581810135601f81018490048402850184019095528484526102ae948235600160a060020a031694602480359536959460649492019190819084018382808284375050604080516020601f89358b018035918201839004830284018301909452808352979a9998810197919650918201945092508291508401838280828437509497506113799650505050505050565b3480156106bb57600080fd5b5060408051602060046024803582810135601f8101859004850286018501909652858552610297958335600160a060020a03169536956044949193909101919081908401838280828437509497506113b39650505050505050565b34801561072257600080fd5b50604080516020600460443581810135601f81018490048402850184019095528484526102ae94823594602480351515953695946064949201919081908401838280828437509497506114ef9650505050505050565b34801561078457600080fd5b50604080516020601f6064356004818101359283018490048402850184019095528184526107e794803594600160a060020a0360248035919091169560443595369560849493019181908401838280828437509497506118939650505050505050565b604080519115158252519081900360200190f35b34801561080757600080fd5b50610297600160a060020a03600435166119bb565b34801561082857600080fd5b506104ab6119de565b8181018281101561083e57fe5b92915050565b600b54610857908263ffffffff61083116565b600b5550565b600480548290811061086b57fe5b6000918252602091829020600a91909102018054600180830154600280850180546040805161010096831615969096026000190190911692909204601f8101889004880285018801909252818452600160a060020a039094169650909491929183018282801561091c5780601f106108f15761010080835404028352916020019161091c565b820191906000526020600020905b8154815290600101906020018083116108ff57829003601f168201915b50505060038401546004850154600586015460068701546007909701549596929560ff80841696506101009093049092169350919089565b60008054600160a060020a0316331461096c57600080fd5b600160a060020a038216600090815260066020526040902054151561099057600080fd5b50600160a060020a0381166000908152600660205260409020545b60075460001901811015610a505760078054600183019081106109ca57fe5b90600052602060002090600302016007828154811015156109e757fe5b6000918252602090912082546003909202018054600160a060020a031916600160a060020a0390921691909117815560018083018054610a3e92808501929160026000199282161561010002929092011604611a84565b506002918201549101556001016109ab565b600780546000198101908110610a6257fe5b6000918252602082206003909102018054600160a060020a031916815590610a8d6001830182611b09565b506000600291909101556007805490610aaa906000198301611b4d565b5060408051600160a060020a03841681526000602082015281517f6517f175230e960868c4eb1703331926f5b97569c338fad430493a0dc8896a4f929181900390910190a15050565b30315b90565b6000600483815481101515610b0a57fe5b90600052602060002090600a02019050806003015442118015610b325750600481015460ff16155b8015610c355750805460018201546040516c01000000000000000000000000600160a060020a0390931692830260208083019182526034830184905286518793605401918401908083835b60208310610b9c5780518252601f199092019160209182019101610b7d565b6001836020036101000a03801982511681845116808217855250505050505090500193505050506040516020818303038152906040526040518082805190602001908083835b60208310610c015780518252601f199092019160209182019101610be2565b5181516020939093036101000a60001901801990911692169190911790526040519201829003909120600785015414925050505b8015610c475750600154816005015410155b1515610c5257600080fd5b600354670de0b6b3a76400000281600601541115610d1e5760048101805460ff191660019081179091558154908201546040518451600160a060020a03909316928591908190602084019080838360005b83811015610cbb578181015183820152602001610ca3565b50505050905090810190601f168015610ce85780820380516001836020036101000a031916815260200191505b5091505060006040518083038185875af1925050501515610d0857600080fd5b60048101805461ff001916610100179055610d2c565b60048101805461ff00191690555b6006810154600582015460048301546040805187815260208101949094528381019290925260ff6101009091041615156060830152517fe5bed13d5b2fec49660744c6b390a680d84a17acd7acdba2ade21c6848f1565d9181900360800190a1505050565b60066020526000908152604090205481565b60055481565b60035481565b600a5481565b6007805482908110610dc357fe5b600091825260209182902060039091020180546001808301805460408051601f6002600019968516156101000296909601909316949094049182018790048702840187019052808352600160a060020a039093169550929390929190830182828015610e705780601f10610e4557610100808354040283529160200191610e70565b820191906000526020600020905b815481529060010190602001808311610e5357829003601f168201915b5050505050908060020154905083565b600b5481565b60025481565b600054600160a060020a03163314610ea357600080fd5b600183905560028290556003819055604080518481526020810184905280820183905290517fa164fca4e776db0f3f67c738f58503bb41d0a9b0adfeb977b4b26dab001cd91c9181900360600190a1505050565b600054600160a060020a03163314610f0e57600080fd5b60008054604051600160a060020a03909116917ff8df31144d9c2f0f6b59d69b8b98abd5459d07f2742c4df920b25aae33c6482091a260008054600160a060020a0319169055565b60015481565b600054600160a060020a031681565b600954604080517f23b872dd000000000000000000000000000000000000000000000000000000008152600160a060020a03878116600483015230602483015260448201879052915191909216916323b872dd9160648083019260209291908290030181600087803b158015610fe057600080fd5b505af1158015610ff4573d6000803e3d6000fd5b505050506040513d602081101561100a57600080fd5b5051151561101757600080fd5b7f97b01e9ec0ff08aa780226dc673f6ab34661565193002bbd6bd066e7ec01beec848484846040518085600160a060020a0316600160a060020a0316815260200184815260200183600160a060020a0316600160a060020a0316815260200180602001828103825283818151815260200191508051906020019080838360005b838110156110af578181015183820152602001611097565b50505050905090810190601f1680156110dc5780820380516001836020036101000a031916815260200191505b509550505050505060405180910390a150505050565b600c5481565b600854600160a060020a031681565b336000908152600660205260408120548190151561112457600080fd5b60048054906111369060018301611b7e565b915060048281548110151561114757fe5b6000918252602091829020600a91909102018054600160a060020a031916600160a060020a03891617815560018101879055855190925061119091600284019190870190611baa565b50600254603c024201600382015560048101805461ffff191690556000600582018190556006820155604051600160a060020a0387166c010000000000000000000000000260208083019182526034830188905285518993899388939092605490920191908401908083835b6020831061121b5780518252601f1990920191602091820191016111fc565b6001836020036101000a03801982511681845116808217855250505050505090500193505050506040516020818303038152906040526040518082805190602001908083835b602083106112805780518252601f199092019160209182019101611261565b51815160209384036101000a6000190180199092169116179052604080519290940182900382206007880155878252600160a060020a038c16828201529281018a90526080606082018181528a519183019190915289517fa565ac3b41596a62c697fe3b6c63aaa18ce2b6564ab2426003dcd6af05c2c93696508895508c948c94508b93929160a084019185019080838360005b8381101561132c578181015183820152602001611314565b50505050905090810190601f1680156113595780820380516001836020036101000a031916815260200191505b509550505050505060405180910390a16001820160055550949350505050565b33600090815260066020526040812054151561139457600080fd5b6113aa8585670de0b6b3a7640000028585611107565b95945050505050565b60008054600160a060020a031633146113cb57600080fd5b50600160a060020a03821660009081526006602052604090205480151561141c5760078054600160a060020a0385166000908152600660205260409020819055906114199060018301611b4d565b90505b60606040519081016040528084600160a060020a031681526020018381526020014281525060078281548110151561145057fe5b60009182526020918290208351600392909202018054600160a060020a031916600160a060020a03909216919091178155828201518051919261149b92600185019290910190611baa565b506040918201516002909101558051600160a060020a03851681526001602082015281517f6517f175230e960868c4eb1703331926f5b97569c338fad430493a0dc8896a4f929181900390910190a1505050565b600954604080517f70a0823100000000000000000000000000000000000000000000000000000000815233600482015290516000928392670de0b6b3a764000092600160a060020a03909216916370a082319160248082019260209290919082900301818887803b15801561156357600080fd5b505af1158015611577573d6000803e3d6000fd5b505050506040513d602081101561158d57600080fd5b5051101561159a57600080fd5b60048054869081106115a857fe5b600091825260208083203384526009600a90930201918201905260409091205490915060ff16156115d857600080fd5b3360009081526009820160205260409020805460ff191660019081179091556005820180549091019055831561175057611746611735600960009054906101000a9004600160a060020a0316600160a060020a03166318160ddd6040518163ffffffff1660e060020a028152600401602060405180830381600087803b15801561166157600080fd5b505af1158015611675573d6000803e3d6000fd5b505050506040513d602081101561168b57600080fd5b5051600954604080517f70a082310000000000000000000000000000000000000000000000000000000081523360048201529051600160a060020a03909216916370a08231916024808201926020929091908290030181600087803b1580156116f357600080fd5b505af1158015611707573d6000803e3d6000fd5b505050506040513d602081101561171d57600080fd5b5051670de0b6b3a7640000029063ffffffff6119ed16565b60068301549063ffffffff61083116565b60068201556117c0565b6117ba6117a9600960009054906101000a9004600160a060020a0316600160a060020a03166318160ddd6040518163ffffffff1660e060020a028152600401602060405180830381600087803b15801561166157600080fd5b60068301549063ffffffff611a0216565b60068201555b7fc34f869b7ff431b034b7b9aea9822dac189a685e0b015c7d1be3add3f89128e885853386604051808581526020018415151515815260200183600160a060020a0316600160a060020a0316815260200180602001828103825283818151815260200191508051906020019080838360005b8381101561184a578181015183820152602001611832565b50505050905090810190601f1680156118775780820380516001836020036101000a031916815260200191505b509550505050505060405180910390a160050154949350505050565b6000806004868154811015156118a557fe5b90600052602060002090600a020190508484846040516020018084600160a060020a0316600160a060020a03166c0100000000000000000000000002815260140183815260200182805190602001908083835b602083106119175780518252601f1990920191602091820191016118f8565b6001836020036101000a03801982511681845116808217855250505050505090500193505050506040516020818303038152906040526040518082805190602001908083835b6020831061197c5780518252601f19909201916020918201910161195d565b5181516000196020949094036101000a939093019283169219169190911790526040519201829003909120600785015414945050505050949350505050565b600054600160a060020a031633146119d257600080fd5b6119db81611a14565b50565b600954600160a060020a031681565b600081838115156119fa57fe5b049392505050565b600082821115611a0e57fe5b50900390565b600160a060020a0381161515611a2957600080fd5b60008054604051600160a060020a03808516939216917f8be0079c531659141344cd1fd0a4f28419497f9722a3daafe3b4186f6b6457e091a360008054600160a060020a031916600160a060020a0392909216919091179055565b828054600181600116156101000203166002900490600052602060002090601f016020900481019282601f10611abd5780548555611af9565b82800160010185558215611af957600052602060002091601f016020900482015b82811115611af9578254825591600101919060010190611ade565b50611b05929150611c18565b5090565b50805460018160011615610100020316600290046000825580601f10611b2f57506119db565b601f0160209004906000526020600020908101906119db9190611c18565b815481835581811115611b7957600302816003028360005260206000209182019101611b799190611c32565b505050565b815481835581811115611b7957600a0281600a028360005260206000209182019101611b799190611c6d565b828054600181600116156101000203166002900490600052602060002090601f016020900481019282601f10611beb57805160ff1916838001178555611af9565b82800160010185558215611af9579182015b82811115611af9578251825591602001919060010190611bfd565b610af691905b80821115611b055760008155600101611c1e565b610af691905b80821115611b05578054600160a060020a03191681556000611c5d6001830182611b09565b5060006002820155600301611c38565b610af691905b80821115611b05578054600160a060020a0319168155600060018201819055611c9f6002830182611b09565b60006003830181905560048301805461ffff19169055600583018190556006830181905560078301819055611cd8906008840190611ce1565b50600a01611c73565b50805460008255600202906000526020600020908101906119db9190610af691905b80821115611b0557805474ffffffffffffffffffffffffffffffffffffffffff191681556000611d366001830182611b09565b50600201611d035600a165627a7a72305820423640b8a91a67efdf4bad89ae24cef4b8a7b60f241f31ba3c8b4b24fc171af90029",
  "source": "pragma solidity ^0.4.24;\n\nimport 'openzeppelin-solidity/contracts/ownership/Ownable.sol';\nimport 'openzeppelin-solidity/contracts/token/ERC20/ERC20.sol';\nimport 'openzeppelin-solidity/contracts/math/SafeMath.sol';\n\ncontract DAO is Ownable {\n    using SafeMath for uint256;\n    // Contract Variables and events\n    uint public minimumQuorum;\n    uint public debatingPeriodInMinutes;\n    uint256 public majorityMarginWeight;\n    Proposal[] public proposals;\n    uint public numProposals;\n    mapping (address => uint) public memberId;\n    Member[] public members;\n    address public factoryAddress;\n    address public token;\n    uint256 public requiredDebt;\n    uint256 public fundsRaised;\n    uint256 public collateralAmount;\n\n    event LogProposalAdded(uint proposalID, address recipient, uint amount, string description);\n    event Voted(uint proposalID, bool position, address voter, string justification);\n    event LogProposalTallied(uint proposalID, uint256 result, uint quorum, bool active);\n    event LogMembershipChanged(address member, bool isMember);\n    event LogChangeOfRules(uint newMinimumQuorum, uint newDebatingPeriodInMinutes, uint256 newmajorityMarginWeight);\n    event LogReceivedEther(address sender, uint amount);\n    event LogReceivedTokens(address _from, uint256 _value, address _token, bytes _extraData);\n\n    struct Proposal {\n        address recipient;\n        uint amount;\n        string description;\n        uint minExecutionDate;\n        bool executed;\n        bool proposalPassed;\n        uint numberOfVotes;\n        uint256 currentResultWeight;\n        bytes32 proposalHash;\n        Vote[] votes;\n        mapping (address => bool) voted;\n    }\n\n    struct Member {\n        address member;\n        string memberName;\n        uint memberSince;\n    }\n\n    struct Vote {\n        bool inSupport;\n        address voter;\n        string justification;\n    }\n\n    modifier onlyFactory() {\n        require(msg.sender == factoryAddress);\n        _;\n    }\n\n    // Modifier that allows only shareholders to vote and create new proposals\n    modifier onlyMembers() {\n        require(memberId[msg.sender] != 0);\n        _;\n    }\n\n    /**\n     * Constructor function\n     */\n    constructor(address _tokenAddress, address _daoOwner, uint256 _amtEthNeeded) public {\n        require(_tokenAddress != address(0));\n        token = _tokenAddress;\n        factoryAddress == msg.sender;\n        owner = _daoOwner;\n        requiredDebt = _amtEthNeeded;\n        // Its necessary to add an empty first member\n        addMember(0, \"\");\n        // and let's add the founder, to save a step later\n        addMember(owner, 'founder');\n    }\n\n    /**\n     * Add member\n     *\n     * Make `targetMember` a member named `memberName`\n     *\n     * @param targetMember ethereum address to be added\n     * @param memberName public name for that member\n     */\n    function addMember(address targetMember, string memberName) public onlyOwner {\n        uint id = memberId[targetMember];\n        if (id == 0) {\n            memberId[targetMember] = members.length;\n            id = members.length++;\n        }\n\n        members[id] = Member(targetMember, memberName, now);\n        emit LogMembershipChanged(targetMember, true);\n    }\n\n    /**\n     * Remove member\n     *\n     * @notice Remove membership from `targetMember`\n     *\n     * @param targetMember ethereum address to be removed\n     */\n    function removeMember(address targetMember) public onlyOwner {\n        require(memberId[targetMember] != 0);\n\n        for (uint i = memberId[targetMember]; i<members.length-1; i++){\n            members[i] = members[i+1];\n        }\n        delete members[members.length-1];\n        members.length--;\n        emit LogMembershipChanged(targetMember, false);\n    }\n\n    /**\n     * Change voting rules\n     *\n     * Make so that proposals need to be discussed for at least `minutesForDebate/60` hours,\n     * have at least `minimumQuorumForProposals` votes, and have 50% + `marginOfVotesForMajority` votes to be executed\n     *\n     * @param minimumQuorumForProposals how many members must vote on a proposal for it to be executed\n     * @param minutesForDebate the minimum amount of delay between when a proposal is made and when it can be executed\n     * @param marginOfVotesForMajority the proposal needs to have 50% plus this number\n     */\n    function changeVotingRules(\n        uint minimumQuorumForProposals,\n        uint minutesForDebate,\n        uint marginOfVotesForMajority\n    ) onlyOwner public {\n        minimumQuorum = minimumQuorumForProposals;\n        debatingPeriodInMinutes = minutesForDebate;\n        majorityMarginWeight = marginOfVotesForMajority;\n\n        emit LogChangeOfRules(minimumQuorum, debatingPeriodInMinutes, majorityMarginWeight);\n    }\n\n    /**\n     * Add Proposal\n     *\n     * Propose to send `weiAmount / 1e18` ether to `beneficiary` for `jobDescription`. `transactionBytecode ? Contains : Does not contain` code.\n     *\n     * @param beneficiary who to send the ether to\n     * @param weiAmount amount of ether to send, in wei\n     * @param jobDescription Description of job\n     * @param transactionBytecode bytecode of transaction\n     */\n    function newProposal(\n        address beneficiary,\n        uint weiAmount,\n        string jobDescription,\n        bytes transactionBytecode\n    )\n        onlyMembers public\n        returns (uint proposalID)\n    {\n        proposalID = proposals.length++;\n        Proposal storage p = proposals[proposalID];\n        p.recipient = beneficiary;\n        p.amount = weiAmount;\n        p.description  = jobDescription;\n        p.minExecutionDate = now + debatingPeriodInMinutes * 1 minutes;\n        p.executed = false;\n        p.proposalPassed = false;\n        p.numberOfVotes = 0;\n        p.currentResultWeight = 0;\n        p.proposalHash = keccak256(abi.encodePacked(beneficiary, weiAmount, transactionBytecode));\n        emit LogProposalAdded(proposalID, beneficiary, weiAmount, jobDescription);\n        numProposals = proposalID+1;\n        return proposalID;\n    }\n\n    /**\n     * Add proposal in Ether\n     *\n     * Propose to send `etherAmount` ether to `beneficiary` for `jobDescription`. `transactionBytecode ? Contains : Does not contain` code.\n     * This is a convenience function to use if the amount to be given is in round number of ether units.\n     *\n     * @param beneficiary who to send the ether to\n     * @param etherAmount amount of ether to send\n     * @param jobDescription Description of job\n     * @param transactionBytecode bytecode of transaction\n     */\n    function newProposalInEther(\n        address beneficiary,\n        uint etherAmount,\n        string jobDescription,\n        bytes transactionBytecode\n    )\n        onlyMembers public\n        returns (uint proposalID)\n    {\n        return newProposal(beneficiary, etherAmount * 1 ether, jobDescription, transactionBytecode);\n    }\n\n    /**\n     * Check if a proposal code matches\n     *\n     * @param proposalNumber ID number of the proposal to query\n     * @param beneficiary who to send the ether to\n     * @param weiAmount amount of ether to send\n     * @param transactionBytecode bytecode of transaction\n     */\n    function checkProposalCode(\n        uint proposalNumber,\n        address beneficiary,\n        uint weiAmount,\n        bytes transactionBytecode\n    )\n        constant public\n        returns (bool codeChecksOut)\n    {\n        Proposal storage p = proposals[proposalNumber];\n        return p.proposalHash == keccak256(abi.encodePacked(beneficiary, weiAmount, transactionBytecode));\n    }\n\n    /**\n     * Log a vote for a proposal\n     *\n     * Vote `supportsProposal? in support of : against` proposal #`proposalNumber`\n     *\n     * @param proposalNumber number of proposal\n     * @param supportsProposal either in favor or against it\n     * @param justificationText optional justification text\n     */\n    function vote(\n        uint proposalNumber,\n        bool supportsProposal,\n        string justificationText\n    )\n        public\n        returns (uint voteID)\n    {   \n        require(ERC20(token).balanceOf(msg.sender) >= 1 ether);\n        Proposal storage p = proposals[proposalNumber]; // Get the proposal\n        require(!p.voted[msg.sender]);                  // If has already voted, cancel\n        p.voted[msg.sender] = true;                     // Set this voter as having voted\n        p.numberOfVotes++;                              // Increase the number of votes\n        if (supportsProposal) {                         // If they support the proposal\n            // Increase score\n            p.currentResultWeight = p.currentResultWeight.add((ERC20(token).balanceOf(msg.sender)* 1 ether).div(ERC20(token).totalSupply()));  \n        } else {  \n            // If they don't Decrease the score                                      \n            p.currentResultWeight = p.currentResultWeight.sub((ERC20(token).balanceOf(msg.sender)* 1 ether).div(ERC20(token).totalSupply()));                    \n        }\n\n        // Create a log of this event\n        emit Voted(proposalNumber,  supportsProposal, msg.sender, justificationText);\n        return p.numberOfVotes;\n        \n    }\n\n    /**\n     * Finish vote\n     *\n     * Count the votes proposal #`proposalNumber` and execute it if approved\n     *\n     * @param proposalNumber proposal number\n     * @param transactionBytecode optional: if the transaction contained a bytecode, you need to send it\n     */\n    function executeProposal(uint proposalNumber, bytes transactionBytecode) public {\n        Proposal storage p = proposals[proposalNumber];\n\n        require(now > p.minExecutionDate                                            // If it is past the voting deadline\n            && !p.executed                                                         // and it has not already been executed\n            && p.proposalHash == keccak256(abi.encodePacked(p.recipient, p.amount, transactionBytecode))  // and the supplied code matches the proposal\n            && p.numberOfVotes >= minimumQuorum);                                  // and a minimum quorum has been reached...\n\n        // ...then execute result\n\n        if (p.currentResultWeight > (majorityMarginWeight * 1 ether)) {\n            // Proposal passed; execute the transaction\n\n            p.executed = true; // Avoid recursive calling\n            require(p.recipient.call.value(p.amount)(transactionBytecode));\n\n            p.proposalPassed = true;\n        } else {\n            // Proposal failed\n            p.proposalPassed = false;\n        }\n\n        // Fire Events\n        emit LogProposalTallied(proposalNumber, p.currentResultWeight, p.numberOfVotes, p.proposalPassed);\n    }\n\n    /**\n     * @notice Provide the total funds in the contract\n     */\n    function getTotalfunds() public view returns(uint256) {\n        return address(this).balance;\n    } \n\n    /// TODO: need to implement the logic after reading the Dharma protocol\n    function _executeDebtOrder(uint256 _value) internal {\n        fundsRaised = fundsRaised.add(_value);\n    }\n\n    function receiveApproval(address _from, uint256 _value, address _token, bytes _extraData) public {\n        require(ERC20(token).transferFrom(_from, this, _value));\n        emit LogReceivedTokens(_from, _value, _token, _extraData);\n    }\n\n    /// fallback function\n    function () payable public {\n        if (collateralAmount == 0) {\n            collateralAmount = collateralAmount.add(msg.value);\n        } else {\n            // TODO: add more logic to work around on the ether recieving \n            _executeDebtOrder(msg.value);\n        }\n        emit LogReceivedEther(msg.sender, msg.value);\n    }\n\n}\n",
  "sourcePath": "/Users/newsgate/cc/ethIn/relayer-kit/ccfc/collaterized-crowdfunding/contracts/DAO.sol",
  "compiler": {
    "name": "solc",
    "version": "0.4.24+commit.e67f0147.Emscripten.clang"
  },
  "schemaVersion": "2.0.1",
  "updatedAt": "2018-08-12T04:26:34.995Z"
}