{
  "contractName": "Token",
  "abi": [
    {
      "constant": true,
      "inputs": [],
      "name": "mintingFinished",
      "outputs": [
        {
          "name": "",
          "type": "bool"
        }
      ],
      "payable": false,
      "stateMutability": "view",
      "type": "function"
    },
    {
      "constant": true,
      "inputs": [],
      "name": "name",
      "outputs": [
        {
          "name": "",
          "type": "string"
        }
      ],
      "payable": false,
      "stateMutability": "view",
      "type": "function"
    },
    {
      "constant": false,
      "inputs": [
        {
          "name": "_spender",
          "type": "address"
        },
        {
          "name": "_value",
          "type": "uint256"
        }
      ],
      "name": "approve",
      "outputs": [
        {
          "name": "",
          "type": "bool"
        }
      ],
      "payable": false,
      "stateMutability": "nonpayable",
      "type": "function"
    },
    {
      "constant": true,
      "inputs": [],
      "name": "totalSupply",
      "outputs": [
        {
          "name": "",
          "type": "uint256"
        }
      ],
      "payable": false,
      "stateMutability": "view",
      "type": "function"
    },
    {
      "constant": false,
      "inputs": [
        {
          "name": "_from",
          "type": "address"
        },
        {
          "name": "_to",
          "type": "address"
        },
        {
          "name": "_value",
          "type": "uint256"
        }
      ],
      "name": "transferFrom",
      "outputs": [
        {
          "name": "",
          "type": "bool"
        }
      ],
      "payable": false,
      "stateMutability": "nonpayable",
      "type": "function"
    },
    {
      "constant": true,
      "inputs": [],
      "name": "decimals",
      "outputs": [
        {
          "name": "",
          "type": "uint8"
        }
      ],
      "payable": false,
      "stateMutability": "view",
      "type": "function"
    },
    {
      "constant": true,
      "inputs": [
        {
          "name": "",
          "type": "address"
        }
      ],
      "name": "allowedMiners",
      "outputs": [
        {
          "name": "",
          "type": "bool"
        }
      ],
      "payable": false,
      "stateMutability": "view",
      "type": "function"
    },
    {
      "constant": false,
      "inputs": [
        {
          "name": "_spender",
          "type": "address"
        },
        {
          "name": "_subtractedValue",
          "type": "uint256"
        }
      ],
      "name": "decreaseApproval",
      "outputs": [
        {
          "name": "",
          "type": "bool"
        }
      ],
      "payable": false,
      "stateMutability": "nonpayable",
      "type": "function"
    },
    {
      "constant": true,
      "inputs": [
        {
          "name": "_owner",
          "type": "address"
        }
      ],
      "name": "balanceOf",
      "outputs": [
        {
          "name": "",
          "type": "uint256"
        }
      ],
      "payable": false,
      "stateMutability": "view",
      "type": "function"
    },
    {
      "constant": false,
      "inputs": [],
      "name": "renounceOwnership",
      "outputs": [],
      "payable": false,
      "stateMutability": "nonpayable",
      "type": "function"
    },
    {
      "constant": true,
      "inputs": [],
      "name": "owner",
      "outputs": [
        {
          "name": "",
          "type": "address"
        }
      ],
      "payable": false,
      "stateMutability": "view",
      "type": "function"
    },
    {
      "constant": true,
      "inputs": [],
      "name": "symbol",
      "outputs": [
        {
          "name": "",
          "type": "string"
        }
      ],
      "payable": false,
      "stateMutability": "view",
      "type": "function"
    },
    {
      "constant": false,
      "inputs": [
        {
          "name": "_to",
          "type": "address"
        },
        {
          "name": "_value",
          "type": "uint256"
        }
      ],
      "name": "transfer",
      "outputs": [
        {
          "name": "",
          "type": "bool"
        }
      ],
      "payable": false,
      "stateMutability": "nonpayable",
      "type": "function"
    },
    {
      "constant": false,
      "inputs": [
        {
          "name": "_spender",
          "type": "address"
        },
        {
          "name": "_addedValue",
          "type": "uint256"
        }
      ],
      "name": "increaseApproval",
      "outputs": [
        {
          "name": "",
          "type": "bool"
        }
      ],
      "payable": false,
      "stateMutability": "nonpayable",
      "type": "function"
    },
    {
      "constant": true,
      "inputs": [
        {
          "name": "_owner",
          "type": "address"
        },
        {
          "name": "_spender",
          "type": "address"
        }
      ],
      "name": "allowance",
      "outputs": [
        {
          "name": "",
          "type": "uint256"
        }
      ],
      "payable": false,
      "stateMutability": "view",
      "type": "function"
    },
    {
      "constant": false,
      "inputs": [
        {
          "name": "_newOwner",
          "type": "address"
        }
      ],
      "name": "transferOwnership",
      "outputs": [],
      "payable": false,
      "stateMutability": "nonpayable",
      "type": "function"
    },
    {
      "inputs": [
        {
          "name": "name",
          "type": "string"
        },
        {
          "name": "symbol",
          "type": "string"
        },
        {
          "name": "decimals",
          "type": "uint8"
        }
      ],
      "payable": false,
      "stateMutability": "nonpayable",
      "type": "constructor"
    },
    {
      "anonymous": false,
      "inputs": [
        {
          "indexed": true,
          "name": "_miner",
          "type": "address"
        },
        {
          "indexed": false,
          "name": "_isAllowed",
          "type": "bool"
        }
      ],
      "name": "LogWhitelistMiner",
      "type": "event"
    },
    {
      "anonymous": false,
      "inputs": [
        {
          "indexed": true,
          "name": "to",
          "type": "address"
        },
        {
          "indexed": false,
          "name": "amount",
          "type": "uint256"
        }
      ],
      "name": "Mint",
      "type": "event"
    },
    {
      "anonymous": false,
      "inputs": [],
      "name": "MintFinished",
      "type": "event"
    },
    {
      "anonymous": false,
      "inputs": [
        {
          "indexed": true,
          "name": "previousOwner",
          "type": "address"
        }
      ],
      "name": "OwnershipRenounced",
      "type": "event"
    },
    {
      "anonymous": false,
      "inputs": [
        {
          "indexed": true,
          "name": "previousOwner",
          "type": "address"
        },
        {
          "indexed": true,
          "name": "newOwner",
          "type": "address"
        }
      ],
      "name": "OwnershipTransferred",
      "type": "event"
    },
    {
      "anonymous": false,
      "inputs": [
        {
          "indexed": true,
          "name": "owner",
          "type": "address"
        },
        {
          "indexed": true,
          "name": "spender",
          "type": "address"
        },
        {
          "indexed": false,
          "name": "value",
          "type": "uint256"
        }
      ],
      "name": "Approval",
      "type": "event"
    },
    {
      "anonymous": false,
      "inputs": [
        {
          "indexed": true,
          "name": "from",
          "type": "address"
        },
        {
          "indexed": true,
          "name": "to",
          "type": "address"
        },
        {
          "indexed": false,
          "name": "value",
          "type": "uint256"
        }
      ],
      "name": "Transfer",
      "type": "event"
    },
    {
      "constant": false,
      "inputs": [
        {
          "name": "_to",
          "type": "address"
        },
        {
          "name": "_amount",
          "type": "uint256"
        }
      ],
      "name": "mint",
      "outputs": [
        {
          "name": "",
          "type": "bool"
        }
      ],
      "payable": false,
      "stateMutability": "nonpayable",
      "type": "function"
    },
    {
      "constant": false,
      "inputs": [],
      "name": "finishMinting",
      "outputs": [
        {
          "name": "",
          "type": "bool"
        }
      ],
      "payable": false,
      "stateMutability": "nonpayable",
      "type": "function"
    },
    {
      "constant": false,
      "inputs": [
        {
          "name": "_miner",
          "type": "address"
        }
      ],
      "name": "whitelistMiner",
      "outputs": [],
      "payable": false,
      "stateMutability": "nonpayable",
      "type": "function"
    }
  ],
  "bytecode": "0x60806040526008805460ff1916905534801561001a57600080fd5b50604051610ed4380380610ed483398101604090815281516020808401519284015160038054600160a060020a0319163317905591840180519094939093019284918491849161006f916004918601906100a3565b5081516100839060059060208501906100a3565b506006805460ff191660ff929092169190911790555061013e9350505050565b828054600181600116156101000203166002900490600052602060002090601f016020900481019282601f106100e457805160ff1916838001178555610111565b82800160010185558215610111579182015b828111156101115782518255916020019190600101906100f6565b5061011d929150610121565b5090565b61013b91905b8082111561011d5760008155600101610127565b90565b610d878061014d6000396000f3006080604052600436106101065763ffffffff7c010000000000000000000000000000000000000000000000000000000060003504166305d2035b811461010b57806306fdde0314610134578063095ea7b3146101be57806318160ddd146101e257806323b872dd14610209578063313ce5671461023357806340c10f191461025e57806355d9d6171461028257806366188463146102a357806370a08231146102c7578063715018a6146102e85780637d64bcb4146102ff5780638da5cb5b1461031457806395d89b4114610345578063a9059cbb1461035a578063b8e639b81461037e578063d73dd6231461039f578063dd62ed3e146103c3578063f2fde38b146103ea575b600080fd5b34801561011757600080fd5b5061012061040b565b604080519115158252519081900360200190f35b34801561014057600080fd5b50610149610414565b6040805160208082528351818301528351919283929083019185019080838360005b8381101561018357818101518382015260200161016b565b50505050905090810190601f1680156101b05780820380516001836020036101000a031916815260200191505b509250505060405180910390f35b3480156101ca57600080fd5b50610120600160a060020a03600435166024356104a2565b3480156101ee57600080fd5b506101f7610508565b60408051918252519081900360200190f35b34801561021557600080fd5b50610120600160a060020a036004358116906024351660443561050e565b34801561023f57600080fd5b50610248610685565b6040805160ff9092168252519081900360200190f35b34801561026a57600080fd5b50610120600160a060020a036004351660243561068e565b34801561028e57600080fd5b50610120600160a060020a03600435166107ad565b3480156102af57600080fd5b50610120600160a060020a03600435166024356107c2565b3480156102d357600080fd5b506101f7600160a060020a03600435166108b2565b3480156102f457600080fd5b506102fd6108cd565b005b34801561030b57600080fd5b5061012061093b565b34801561032057600080fd5b506103296109a1565b60408051600160a060020a039092168252519081900360200190f35b34801561035157600080fd5b506101496109b0565b34801561036657600080fd5b50610120600160a060020a0360043516602435610a0b565b34801561038a57600080fd5b506102fd600160a060020a0360043516610aec565b3480156103ab57600080fd5b50610120600160a060020a0360043516602435610bd1565b3480156103cf57600080fd5b506101f7600160a060020a0360043581169060243516610c6a565b3480156103f657600080fd5b506102fd600160a060020a0360043516610c95565b60085460ff1681565b6004805460408051602060026001851615610100026000190190941693909304601f8101849004840282018401909252818152929183018282801561049a5780601f1061046f5761010080835404028352916020019161049a565b820191906000526020600020905b81548152906001019060200180831161047d57829003601f168201915b505050505081565b336000818152600260209081526040808320600160a060020a038716808552908352818420869055815186815291519394909390927f8c5be1e5ebec7d5bd14f71427d1e84f3dd0314c0f7b2291e5b200ac8c7c3b925928290030190a350600192915050565b60015490565b6000600160a060020a038316151561052557600080fd5b600160a060020a03841660009081526020819052604090205482111561054a57600080fd5b600160a060020a038416600090815260026020908152604080832033845290915290205482111561057a57600080fd5b600160a060020a0384166000908152602081905260409020546105a3908363ffffffff610cb816565b600160a060020a0380861660009081526020819052604080822093909355908516815220546105d8908363ffffffff610cca16565b600160a060020a0380851660009081526020818152604080832094909455918716815260028252828120338252909152205461061a908363ffffffff610cb816565b600160a060020a03808616600081815260026020908152604080832033845282529182902094909455805186815290519287169391927fddf252ad1be2c89b69c2b068fc378daa952ba7f163c4a11628f55a4df523b3ef929181900390910190a35060019392505050565b60065460ff1681565b600354600090600160a060020a03163314806106b957503360009081526007602052604090205460ff165b15156106c457600080fd5b60085460ff16156106d457600080fd5b6001546106e7908363ffffffff610cca16565b600155600160a060020a038316600090815260208190526040902054610713908363ffffffff610cca16565b600160a060020a03841660008181526020818152604091829020939093558051858152905191927f0f6798a560793a54c3bcfe86a93cde1e73087d944c0ea20544137d412139688592918290030190a2604080518381529051600160a060020a038516916000917fddf252ad1be2c89b69c2b068fc378daa952ba7f163c4a11628f55a4df523b3ef9181900360200190a350600192915050565b60076020526000908152604090205460ff1681565b336000908152600260209081526040808320600160a060020a03861684529091528120548083111561081757336000908152600260209081526040808320600160a060020a038816845290915281205561084c565b610827818463ffffffff610cb816565b336000908152600260209081526040808320600160a060020a03891684529091529020555b336000818152600260209081526040808320600160a060020a0389168085529083529281902054815190815290519293927f8c5be1e5ebec7d5bd14f71427d1e84f3dd0314c0f7b2291e5b200ac8c7c3b925929181900390910190a35060019392505050565b600160a060020a031660009081526020819052604090205490565b600354600160a060020a031633146108e457600080fd5b600354604051600160a060020a03909116907ff8df31144d9c2f0f6b59d69b8b98abd5459d07f2742c4df920b25aae33c6482090600090a26003805473ffffffffffffffffffffffffffffffffffffffff19169055565b600354600090600160a060020a0316331461095557600080fd5b60085460ff161561096557600080fd5b6008805460ff191660011790556040517fae5184fba832cb2b1f702aca6117b8d265eaf03ad33eb133f19dde0f5920fa0890600090a150600190565b600354600160a060020a031681565b6005805460408051602060026001851615610100026000190190941693909304601f8101849004840282018401909252818152929183018282801561049a5780601f1061046f5761010080835404028352916020019161049a565b6000600160a060020a0383161515610a2257600080fd5b33600090815260208190526040902054821115610a3e57600080fd5b33600090815260208190526040902054610a5e908363ffffffff610cb816565b3360009081526020819052604080822092909255600160a060020a03851681522054610a90908363ffffffff610cca16565b600160a060020a038416600081815260208181526040918290209390935580518581529051919233927fddf252ad1be2c89b69c2b068fc378daa952ba7f163c4a11628f55a4df523b3ef9281900390910190a350600192915050565b600354600090600160a060020a03163314610b0657600080fd5b600160a060020a0382161515610b1b57600080fd5b50600160a060020a03811660009081526007602052604090205460019060ff161515610b6a57600160a060020a0382166000908152600760205260409020805460ff1916821515179055610b8c565b50600160a060020a0381166000908152600760205260408120805460ff191690555b6040805182151581529051600160a060020a038416917f48774d09d120b278ac3d5103bd4c120025ef72801a2ff3b89e753e517ffab0ff919081900360200190a25050565b336000908152600260209081526040808320600160a060020a0386168452909152812054610c05908363ffffffff610cca16565b336000818152600260209081526040808320600160a060020a0389168085529083529281902085905580519485525191937f8c5be1e5ebec7d5bd14f71427d1e84f3dd0314c0f7b2291e5b200ac8c7c3b925929081900390910190a350600192915050565b600160a060020a03918216600090815260026020908152604080832093909416825291909152205490565b600354600160a060020a03163314610cac57600080fd5b610cb581610cdd565b50565b600082821115610cc457fe5b50900390565b81810182811015610cd757fe5b92915050565b600160a060020a0381161515610cf257600080fd5b600354604051600160a060020a038084169216907f8be0079c531659141344cd1fd0a4f28419497f9722a3daafe3b4186f6b6457e090600090a36003805473ffffffffffffffffffffffffffffffffffffffff1916600160a060020a03929092169190911790555600a165627a7a72305820fa1a9d1ccbbdc08f099a75a2ad146c2679594c54d00adfca3632c989ae4698b80029",
  "source": "pragma solidity ^0.4.24;\n\nimport \"openzeppelin-solidity/contracts/token/ERC20/MintableToken.sol\";\nimport \"openzeppelin-solidity/contracts/token/ERC20/DetailedERC20.sol\";\n\ncontract Token is StandardToken, Ownable, DetailedERC20 {\n\n  \n  mapping(address => bool) public allowedMiners;\n  event LogWhitelistMiner(address indexed _miner, bool _isAllowed);\n  event Mint(address indexed to, uint256 amount);\n  event MintFinished();\n \n  bool public mintingFinished = false;\n\n\n  modifier canMint() {\n    require(!mintingFinished);\n    _;\n  }\n\n  modifier hasMintPermission() {\n    require(msg.sender == owner || allowedMiners[msg.sender]);\n    _;\n  }\n\n   constructor(string name, string symbol, uint8 decimals) public DetailedERC20(name, symbol, decimals) {\n\n   }\n\n  /**\n   * @dev Function to mint tokens\n   * @param _to The address that will receive the minted tokens.\n   * @param _amount The amount of tokens to mint.\n   * @return A boolean that indicates if the operation was successful.\n   */\n  function mint(\n    address _to,\n    uint256 _amount\n  )\n    hasMintPermission\n    canMint\n    public\n    returns (bool)\n  {\n    totalSupply_ = totalSupply_.add(_amount);\n    balances[_to] = balances[_to].add(_amount);\n    emit Mint(_to, _amount);\n    emit Transfer(address(0), _to, _amount);\n    return true;\n  }\n\n  /**\n   * @dev Function to stop minting new tokens.\n   * @return True if the operation was successful.\n   */\n  function finishMinting() onlyOwner canMint public returns (bool) {\n    mintingFinished = true;\n    emit MintFinished();\n    return true;\n  }\n\n  /**\n   * @dev Add the miner in the allowed miner list\n   * @param _miner Address of the new miner\n   */\n   function whitelistMiner(address _miner) public onlyOwner {\n       require(_miner !=address(0));\n       bool isAllowed = true;\n       if (!allowedMiners[_miner]) {\n           allowedMiners[_miner] = isAllowed;\n       } else {\n           isAllowed = false;\n           allowedMiners[_miner] = isAllowed;\n       }\n       emit LogWhitelistMiner(_miner, isAllowed);\n       \n   }\n\n}",
  "sourcePath": "/Users/newsgate/cc/ethIn/relayer-kit/ccfc/collaterized-crowdfunding/contracts/Token.sol",
  "compiler": {
    "name": "solc",
    "version": "0.4.24+commit.e67f0147.Emscripten.clang"
  },
  "schemaVersion": "2.0.1",
  "updatedAt": "2018-08-12T09:41:55.977Z"
}